{
  "_format": "hh-sol-artifact-1",
  "contractName": "Shop",
  "sourceName": "contracts/Shop.sol",
  "abi": [
    {
      "inputs": [],
      "stateMutability": "nonpayable",
      "type": "constructor"
    },
    {
      "inputs": [
        {
          "internalType": "uint256",
          "name": "id",
          "type": "uint256"
        }
      ],
      "name": "IdAlreadyExists",
      "type": "error"
    },
    {
      "inputs": [
        {
          "internalType": "uint256",
          "name": "price",
          "type": "uint256"
        }
      ],
      "name": "InvalidProductPrice",
      "type": "error"
    },
    {
      "inputs": [
        {
          "internalType": "address",
          "name": "caller",
          "type": "address"
        }
      ],
      "name": "NotShopOwner",
      "type": "error"
    },
    {
      "inputs": [
        {
          "internalType": "uint256",
          "name": "productId",
          "type": "uint256"
        }
      ],
      "name": "ProductDoesNotExist",
      "type": "error"
    },
    {
      "inputs": [
        {
          "internalType": "string",
          "name": "_productName",
          "type": "string"
        },
        {
          "internalType": "uint256",
          "name": "_productPrice",
          "type": "uint256"
        }
      ],
      "name": "addProduct",
      "outputs": [],
      "stateMutability": "nonpayable",
      "type": "function"
    },
    {
      "inputs": [
        {
          "internalType": "uint256",
          "name": "_productId",
          "type": "uint256"
        }
      ],
      "name": "getProduct",
      "outputs": [
        {
          "internalType": "string",
          "name": "",
          "type": "string"
        },
        {
          "internalType": "uint256",
          "name": "",
          "type": "uint256"
        }
      ],
      "stateMutability": "view",
      "type": "function"
    },
    {
      "inputs": [],
      "name": "productCount",
      "outputs": [
        {
          "internalType": "uint256",
          "name": "",
          "type": "uint256"
        }
      ],
      "stateMutability": "view",
      "type": "function"
    },
    {
      "inputs": [],
      "name": "shopOwner",
      "outputs": [
        {
          "internalType": "address",
          "name": "",
          "type": "address"
        }
      ],
      "stateMutability": "view",
      "type": "function"
    },
    {
      "inputs": [
        {
          "internalType": "uint256",
          "name": "_productId",
          "type": "uint256"
        },
        {
          "internalType": "uint256",
          "name": "_newPrice",
          "type": "uint256"
        }
      ],
      "name": "updateProductPrice",
      "outputs": [],
      "stateMutability": "nonpayable",
      "type": "function"
    }
  ],
  "bytecode": "0x6080604052348015600f57600080fd5b50336000806101000a81548173ffffffffffffffffffffffffffffffffffffffff021916908373ffffffffffffffffffffffffffffffffffffffff160217905550610ce88061005f6000396000f3fe608060405234801561001057600080fd5b50600436106100575760003560e01c8063052cbab61461005c5780639c3bddb21461007a578063b15247d914610096578063b9db15b4146100b2578063e0f6ef87146100e3575b600080fd5b610064610101565b6040516100719190610541565b60405180910390f35b610094600480360381019061008f91906105a6565b610125565b005b6100b060048036038101906100ab919061072c565b61024e565b005b6100cc60048036038101906100c79190610788565b6103dc565b6040516100da929190610843565b60405180910390f35b6100eb6104fa565b6040516100f89190610873565b60405180910390f35b60008054906101000a900473ffffffffffffffffffffffffffffffffffffffff1681565b60008054906101000a900473ffffffffffffffffffffffffffffffffffffffff1673ffffffffffffffffffffffffffffffffffffffff163373ffffffffffffffffffffffffffffffffffffffff16146101b557336040517f6a3eaf2b0000000000000000000000000000000000000000000000000000000081526004016101ac9190610541565b60405180910390fd5b80600081036101fb57806040517f05f187330000000000000000000000000000000000000000000000000000000081526004016101f29190610873565b60405180910390fd5b600060026000858152602001908152602001600020600001805461021e906108bd565b90500361022e5761022d6108ee565b5b816002600085815260200190815260200160002060010181905550505050565b60008054906101000a900473ffffffffffffffffffffffffffffffffffffffff1673ffffffffffffffffffffffffffffffffffffffff163373ffffffffffffffffffffffffffffffffffffffff16146102de57336040517f6a3eaf2b0000000000000000000000000000000000000000000000000000000081526004016102d59190610541565b60405180910390fd5b806000810361032457806040517f05f1873300000000000000000000000000000000000000000000000000000000815260040161031b9190610873565b60405180910390fd5b600060018054610334919061094c565b90506000600260008381526020019081526020016000209050600081600001805461035e906108bd565b9050146103a257816040517f34719b840000000000000000000000000000000000000000000000000000000081526004016103999190610873565b60405180910390fd5b848160000190816103b39190610b2c565b50838160010181905550600160008154809291906103d090610bfe565b91905055505050505050565b6060600080600260008581526020019081526020016000206000018054610402906108bd565b905003610444576040517f08c379a000000000000000000000000000000000000000000000000000000000815260040161043b90610c92565b60405180910390fd5b6000600260008581526020019081526020016000209050806000018160010154818054610470906108bd565b80601f016020809104026020016040519081016040528092919081815260200182805461049c906108bd565b80156104e95780601f106104be576101008083540402835291602001916104e9565b820191906000526020600020905b8154815290600101906020018083116104cc57829003601f168201915b505050505091509250925050915091565b60015481565b600073ffffffffffffffffffffffffffffffffffffffff82169050919050565b600061052b82610500565b9050919050565b61053b81610520565b82525050565b60006020820190506105566000830184610532565b92915050565b6000604051905090565b600080fd5b600080fd5b6000819050919050565b61058381610570565b811461058e57600080fd5b50565b6000813590506105a08161057a565b92915050565b600080604083850312156105bd576105bc610566565b5b60006105cb85828601610591565b92505060206105dc85828601610591565b9150509250929050565b600080fd5b600080fd5b6000601f19601f8301169050919050565b7f4e487b7100000000000000000000000000000000000000000000000000000000600052604160045260246000fd5b610639826105f0565b810181811067ffffffffffffffff8211171561065857610657610601565b5b80604052505050565b600061066b61055c565b90506106778282610630565b919050565b600067ffffffffffffffff82111561069757610696610601565b5b6106a0826105f0565b9050602081019050919050565b82818337600083830152505050565b60006106cf6106ca8461067c565b610661565b9050828152602081018484840111156106eb576106ea6105eb565b5b6106f68482856106ad565b509392505050565b600082601f830112610713576107126105e6565b5b81356107238482602086016106bc565b91505092915050565b6000806040838503121561074357610742610566565b5b600083013567ffffffffffffffff8111156107615761076061056b565b5b61076d858286016106fe565b925050602061077e85828601610591565b9150509250929050565b60006020828403121561079e5761079d610566565b5b60006107ac84828501610591565b91505092915050565b600081519050919050565b600082825260208201905092915050565b60005b838110156107ef5780820151818401526020810190506107d4565b60008484015250505050565b6000610806826107b5565b61081081856107c0565b93506108208185602086016107d1565b610829816105f0565b840191505092915050565b61083d81610570565b82525050565b6000604082019050818103600083015261085d81856107fb565b905061086c6020830184610834565b9392505050565b60006020820190506108886000830184610834565b92915050565b7f4e487b7100000000000000000000000000000000000000000000000000000000600052602260045260246000fd5b600060028204905060018216806108d557607f821691505b6020821081036108e8576108e761088e565b5b50919050565b7f4e487b7100000000000000000000000000000000000000000000000000000000600052600160045260246000fd5b7f4e487b7100000000000000000000000000000000000000000000000000000000600052601160045260246000fd5b600061095782610570565b915061096283610570565b925082820190508082111561097a5761097961091d565b5b92915050565b60008190508160005260206000209050919050565b60006020601f8301049050919050565b600082821b905092915050565b6000600883026109e27fffffffffffffffffffffffffffffffffffffffffffffffffffffffffffffffff826109a5565b6109ec86836109a5565b95508019841693508086168417925050509392505050565b6000819050919050565b6000610a29610a24610a1f84610570565b610a04565b610570565b9050919050565b6000819050919050565b610a4383610a0e565b610a57610a4f82610a30565b8484546109b2565b825550505050565b600090565b610a6c610a5f565b610a77818484610a3a565b505050565b5b81811015610a9b57610a90600082610a64565b600181019050610a7d565b5050565b601f821115610ae057610ab181610980565b610aba84610995565b81016020851015610ac9578190505b610add610ad585610995565b830182610a7c565b50505b505050565b600082821c905092915050565b6000610b0360001984600802610ae5565b1980831691505092915050565b6000610b1c8383610af2565b9150826002028217905092915050565b610b35826107b5565b67ffffffffffffffff811115610b4e57610b4d610601565b5b610b5882546108bd565b610b63828285610a9f565b600060209050601f831160018114610b965760008415610b84578287015190505b610b8e8582610b10565b865550610bf6565b601f198416610ba486610980565b60005b82811015610bcc57848901518255600182019150602085019450602081019050610ba7565b86831015610be95784890151610be5601f891682610af2565b8355505b6001600288020188555050505b505050505050565b6000610c0982610570565b91507fffffffffffffffffffffffffffffffffffffffffffffffffffffffffffffffff8203610c3b57610c3a61091d565b5b600182019050919050565b7f546869732070726f6475637420646f6573206e6f742065786973740000000000600082015250565b6000610c7c601b836107c0565b9150610c8782610c46565b602082019050919050565b60006020820190508181036000830152610cab81610c6f565b905091905056fea26469706673582212208181ece84681141c44342af2522edd528f0b07c24ec1acae56ebfaad9a91524464736f6c634300081c0033",
  "linkReferences": {},
  "deployedLinkReferences": {}
}